{
  "contractName": "Lottery",
  "abi": [
    {
      "inputs": [],
      "stateMutability": "nonpayable",
      "type": "constructor"
    },
    {
      "inputs": [],
      "name": "_winner",
      "outputs": [
        {
          "internalType": "address",
          "name": "",
          "type": "address"
        }
      ],
      "stateMutability": "view",
      "type": "function",
      "constant": true
    },
    {
      "inputs": [],
      "name": "contrato",
      "outputs": [
        {
          "internalType": "address",
          "name": "",
          "type": "address"
        }
      ],
      "stateMutability": "view",
      "type": "function",
      "constant": true
    },
    {
      "inputs": [],
      "name": "owner",
      "outputs": [
        {
          "internalType": "address",
          "name": "",
          "type": "address"
        }
      ],
      "stateMutability": "view",
      "type": "function",
      "constant": true
    },
    {
      "inputs": [
        {
          "internalType": "uint256",
          "name": "",
          "type": "uint256"
        }
      ],
      "name": "players",
      "outputs": [
        {
          "internalType": "address",
          "name": "",
          "type": "address"
        }
      ],
      "stateMutability": "view",
      "type": "function",
      "constant": true
    },
    {
      "inputs": [],
      "name": "precio",
      "outputs": [
        {
          "internalType": "uint256",
          "name": "",
          "type": "uint256"
        }
      ],
      "stateMutability": "view",
      "type": "function",
      "constant": true
    },
    {
      "inputs": [],
      "name": "valor",
      "outputs": [
        {
          "internalType": "uint256",
          "name": "",
          "type": "uint256"
        }
      ],
      "stateMutability": "view",
      "type": "function",
      "constant": true
    },
    {
      "inputs": [
        {
          "internalType": "uint256",
          "name": "",
          "type": "uint256"
        }
      ],
      "name": "winners",
      "outputs": [
        {
          "internalType": "address",
          "name": "",
          "type": "address"
        }
      ],
      "stateMutability": "view",
      "type": "function",
      "constant": true
    },
    {
      "inputs": [
        {
          "internalType": "uint256",
          "name": "_valor",
          "type": "uint256"
        }
      ],
      "name": "valordeLaLoteria",
      "outputs": [],
      "stateMutability": "nonpayable",
      "type": "function"
    },
    {
      "inputs": [],
      "name": "getContract",
      "outputs": [
        {
          "internalType": "address",
          "name": "",
          "type": "address"
        }
      ],
      "stateMutability": "view",
      "type": "function",
      "constant": true
    },
    {
      "inputs": [
        {
          "internalType": "uint256",
          "name": "_numTickets",
          "type": "uint256"
        },
        {
          "internalType": "string",
          "name": "_name",
          "type": "string"
        }
      ],
      "name": "enter",
      "outputs": [],
      "stateMutability": "payable",
      "type": "function",
      "payable": true
    },
    {
      "inputs": [],
      "name": "pickWinner",
      "outputs": [],
      "stateMutability": "nonpayable",
      "type": "function"
    },
    {
      "inputs": [],
      "name": "getBalance",
      "outputs": [
        {
          "internalType": "uint256",
          "name": "",
          "type": "uint256"
        }
      ],
      "stateMutability": "view",
      "type": "function",
      "constant": true
    },
    {
      "inputs": [],
      "name": "getAmount",
      "outputs": [
        {
          "internalType": "uint256",
          "name": "",
          "type": "uint256"
        }
      ],
      "stateMutability": "view",
      "type": "function",
      "constant": true
    },
    {
      "inputs": [
        {
          "internalType": "address",
          "name": "_address",
          "type": "address"
        }
      ],
      "name": "getString",
      "outputs": [
        {
          "internalType": "string",
          "name": "",
          "type": "string"
        }
      ],
      "stateMutability": "view",
      "type": "function",
      "constant": true
    },
    {
      "inputs": [
        {
          "internalType": "address",
          "name": "_address",
          "type": "address"
        }
      ],
      "name": "getHowMuch",
      "outputs": [
        {
          "internalType": "uint256",
          "name": "",
          "type": "uint256"
        }
      ],
      "stateMutability": "view",
      "type": "function",
      "constant": true
    },
    {
      "inputs": [],
      "name": "getPlayers",
      "outputs": [
        {
          "internalType": "address[]",
          "name": "",
          "type": "address[]"
        }
      ],
      "stateMutability": "view",
      "type": "function",
      "constant": true
    },
    {
      "inputs": [],
      "name": "getWinners",
      "outputs": [
        {
          "internalType": "address[]",
          "name": "",
          "type": "address[]"
        }
      ],
      "stateMutability": "view",
      "type": "function",
      "constant": true
    },
    {
      "inputs": [],
      "name": "withdraw",
      "outputs": [],
      "stateMutability": "payable",
      "type": "function",
      "payable": true
    }
  ],
  "bytecode": "0x608060405266038d7ea4c6800060055534801561001b57600080fd5b50336000806101000a81548173ffffffffffffffffffffffffffffffffffffffff021916908373ffffffffffffffffffffffffffffffffffffffff16021790555030600360006101000a81548173ffffffffffffffffffffffffffffffffffffffff021916908373ffffffffffffffffffffffffffffffffffffffff16021790555061180b806100ac6000396000f3fe6080604052600436106101095760003560e01c8063958f85bd11610095578063de68faed11610064578063de68faed1461031b578063df15c37e14610358578063e1a01e6714610383578063ecbac7cf146103ae578063f71d96cb146103d957610109565b8063958f85bd1461025d5780639e66e0f314610288578063a2fb1175146102b3578063d321fe29146102f057610109565b80637d434425116100dc5780637d4344251461017657806382374c13146101b35780638b5b9ccc146101de5780638da5cb5b1461020957806392e582de1461023457610109565b806312065fe01461010e5780632568666a146101395780633ccfd60b146101555780635d495aea1461015f575b600080fd5b34801561011a57600080fd5b50610123610416565b6040516101309190610f03565b60405180910390f35b610153600480360381019061014e91906110a4565b610477565b005b61015d610609565b005b34801561016b57600080fd5b506101746106ca565b005b34801561018257600080fd5b5061019d6004803603810190610198919061115e565b6108c9565b6040516101aa9190611213565b60405180910390f35b3480156101bf57600080fd5b506101c861099a565b6040516101d59190611244565b60405180910390f35b3480156101ea57600080fd5b506101f36109c0565b604051610200919061131d565b60405180910390f35b34801561021557600080fd5b5061021e610a4e565b60405161022b9190611244565b60405180910390f35b34801561024057600080fd5b5061025b6004803603810190610256919061133f565b610a72565b005b34801561026957600080fd5b50610272610a7c565b60405161027f9190611244565b60405180910390f35b34801561029457600080fd5b5061029d610a84565b6040516102aa9190610f03565b60405180910390f35b3480156102bf57600080fd5b506102da60048036038101906102d5919061133f565b610a8a565b6040516102e79190611244565b60405180910390f35b3480156102fc57600080fd5b50610305610ac9565b6040516103129190610f03565b60405180910390f35b34801561032757600080fd5b50610342600480360381019061033d919061115e565b610b5b565b60405161034f9190610f03565b60405180910390f35b34801561036457600080fd5b5061036d610ba4565b60405161037a919061131d565b60405180910390f35b34801561038f57600080fd5b50610398610c32565b6040516103a59190611244565b60405180910390f35b3480156103ba57600080fd5b506103c3610c58565b6040516103d09190610f03565b60405180910390f35b3480156103e557600080fd5b5061040060048036038101906103fb919061133f565b610c5e565b60405161040d9190611244565b60405180910390f35b60008060009054906101000a900473ffffffffffffffffffffffffffffffffffffffff1673ffffffffffffffffffffffffffffffffffffffff163373ffffffffffffffffffffffffffffffffffffffff161461047157600080fd5b47905090565b60055482610485919061139b565b3410156104c7576040517f08c379a00000000000000000000000000000000000000000000000000000000081526004016104be90611441565b60405180910390fd5b3373ffffffffffffffffffffffffffffffffffffffff166108fc600554846104ef919061139b565b9081150290604051600060405180830381858888f1935050505015801561051a573d6000803e3d6000fd5b5060055482610529919061139b565b60068190555060005b828110156105b0576001339080600181540180825580915050600190039060005260206000200160009091909190916101000a81548173ffffffffffffffffffffffffffffffffffffffff021916908373ffffffffffffffffffffffffffffffffffffffff16021790555080806105a890611461565b915050610532565b5080600760003373ffffffffffffffffffffffffffffffffffffffff1673ffffffffffffffffffffffffffffffffffffffff1681526020019081526020016000209080519060200190610604929190610dbd565b505050565b60008054906101000a900473ffffffffffffffffffffffffffffffffffffffff1673ffffffffffffffffffffffffffffffffffffffff163373ffffffffffffffffffffffffffffffffffffffff161461066157600080fd5b60008054906101000a900473ffffffffffffffffffffffffffffffffffffffff1673ffffffffffffffffffffffffffffffffffffffff166108fc479081150290604051600060405180830381858888f193505050501580156106c7573d6000803e3d6000fd5b50565b60008054906101000a900473ffffffffffffffffffffffffffffffffffffffff1673ffffffffffffffffffffffffffffffffffffffff163373ffffffffffffffffffffffffffffffffffffffff161461072257600080fd5b6000600180549050610732610c9d565b61073c91906114d9565b9050600181815481106107525761075161150a565b5b9060005260206000200160009054906101000a900473ffffffffffffffffffffffffffffffffffffffff16600460006101000a81548173ffffffffffffffffffffffffffffffffffffffff021916908373ffffffffffffffffffffffffffffffffffffffff1602179055506002600182815481106107d3576107d261150a565b5b9060005260206000200160009054906101000a900473ffffffffffffffffffffffffffffffffffffffff169080600181540180825580915050600190039060005260206000200160009091909190916101000a81548173ffffffffffffffffffffffffffffffffffffffff021916908373ffffffffffffffffffffffffffffffffffffffff160217905550600067ffffffffffffffff81111561087957610878610f79565b5b6040519080825280602002602001820160405280156108a75781602001602082028036833780820191505090505b50600190805190602001906108bd929190610e43565b506108c6610cd3565b50565b6060600760008373ffffffffffffffffffffffffffffffffffffffff1673ffffffffffffffffffffffffffffffffffffffff168152602001908152602001600020805461091590611568565b80601f016020809104026020016040519081016040528092919081815260200182805461094190611568565b801561098e5780601f106109635761010080835404028352916020019161098e565b820191906000526020600020905b81548152906001019060200180831161097157829003601f168201915b50505050509050919050565b600460009054906101000a900473ffffffffffffffffffffffffffffffffffffffff1681565b60606001805480602002602001604051908101604052809291908181526020018280548015610a4457602002820191906000526020600020905b8160009054906101000a900473ffffffffffffffffffffffffffffffffffffffff1673ffffffffffffffffffffffffffffffffffffffff16815260200190600101908083116109fa575b5050505050905090565b60008054906101000a900473ffffffffffffffffffffffffffffffffffffffff1681565b8060058190555050565b600030905090565b60065481565b60028181548110610a9a57600080fd5b906000526020600020016000915054906101000a900473ffffffffffffffffffffffffffffffffffffffff1681565b60008060009054906101000a900473ffffffffffffffffffffffffffffffffffffffff1673ffffffffffffffffffffffffffffffffffffffff163373ffffffffffffffffffffffffffffffffffffffff1614610b2457600080fd5b60004790506000606482610b38919061159a565b90506000610b50604683610d4290919063ffffffff16565b905080935050505090565b6000600860008373ffffffffffffffffffffffffffffffffffffffff1673ffffffffffffffffffffffffffffffffffffffff168152602001908152602001600020549050919050565b60606002805480602002602001604051908101604052809291908181526020018280548015610c2857602002820191906000526020600020905b8160009054906101000a900473ffffffffffffffffffffffffffffffffffffffff1673ffffffffffffffffffffffffffffffffffffffff1681526020019060010190808311610bde575b5050505050905090565b600360009054906101000a900473ffffffffffffffffffffffffffffffffffffffff1681565b60055481565b60018181548110610c6e57600080fd5b906000526020600020016000915054906101000a900473ffffffffffffffffffffffffffffffffffffffff1681565b600044426001604051602001610cb59392919061170a565b6040516020818303038152906040528051906020012060001c905090565b610cdb610416565b60086000600460009054906101000a900473ffffffffffffffffffffffffffffffffffffffff1673ffffffffffffffffffffffffffffffffffffffff1673ffffffffffffffffffffffffffffffffffffffff16815260200190815260200160002081905550565b600080831415610d555760009050610db7565b60008284610d63919061139b565b9050828482610d72919061159a565b14610db2576040517f08c379a0000000000000000000000000000000000000000000000000000000008152600401610da9906117b5565b60405180910390fd5b809150505b92915050565b828054610dc990611568565b90600052602060002090601f016020900481019282610deb5760008555610e32565b82601f10610e0457805160ff1916838001178555610e32565b82800160010185558215610e32579182015b82811115610e31578251825591602001919060010190610e16565b5b509050610e3f9190610ecd565b5090565b828054828255906000526020600020908101928215610ebc579160200282015b82811115610ebb5782518260006101000a81548173ffffffffffffffffffffffffffffffffffffffff021916908373ffffffffffffffffffffffffffffffffffffffff16021790555091602001919060010190610e63565b5b509050610ec99190610ecd565b5090565b5b80821115610ee6576000816000905550600101610ece565b5090565b6000819050919050565b610efd81610eea565b82525050565b6000602082019050610f186000830184610ef4565b92915050565b6000604051905090565b600080fd5b600080fd5b610f3b81610eea565b8114610f4657600080fd5b50565b600081359050610f5881610f32565b92915050565b600080fd5b600080fd5b6000601f19601f8301169050919050565b7f4e487b7100000000000000000000000000000000000000000000000000000000600052604160045260246000fd5b610fb182610f68565b810181811067ffffffffffffffff82111715610fd057610fcf610f79565b5b80604052505050565b6000610fe3610f1e565b9050610fef8282610fa8565b919050565b600067ffffffffffffffff82111561100f5761100e610f79565b5b61101882610f68565b9050602081019050919050565b82818337600083830152505050565b600061104761104284610ff4565b610fd9565b90508281526020810184848401111561106357611062610f63565b5b61106e848285611025565b509392505050565b600082601f83011261108b5761108a610f5e565b5b813561109b848260208601611034565b91505092915050565b600080604083850312156110bb576110ba610f28565b5b60006110c985828601610f49565b925050602083013567ffffffffffffffff8111156110ea576110e9610f2d565b5b6110f685828601611076565b9150509250929050565b600073ffffffffffffffffffffffffffffffffffffffff82169050919050565b600061112b82611100565b9050919050565b61113b81611120565b811461114657600080fd5b50565b60008135905061115881611132565b92915050565b60006020828403121561117457611173610f28565b5b600061118284828501611149565b91505092915050565b600081519050919050565b600082825260208201905092915050565b60005b838110156111c55780820151818401526020810190506111aa565b838111156111d4576000848401525b50505050565b60006111e58261118b565b6111ef8185611196565b93506111ff8185602086016111a7565b61120881610f68565b840191505092915050565b6000602082019050818103600083015261122d81846111da565b905092915050565b61123e81611120565b82525050565b60006020820190506112596000830184611235565b92915050565b600081519050919050565b600082825260208201905092915050565b6000819050602082019050919050565b61129481611120565b82525050565b60006112a6838361128b565b60208301905092915050565b6000602082019050919050565b60006112ca8261125f565b6112d4818561126a565b93506112df8361127b565b8060005b838110156113105781516112f7888261129a565b9750611302836112b2565b9250506001810190506112e3565b5085935050505092915050565b6000602082019050818103600083015261133781846112bf565b905092915050565b60006020828403121561135557611354610f28565b5b600061136384828501610f49565b91505092915050565b7f4e487b7100000000000000000000000000000000000000000000000000000000600052601160045260246000fd5b60006113a682610eea565b91506113b183610eea565b9250817fffffffffffffffffffffffffffffffffffffffffffffffffffffffffffffffff04831182151516156113ea576113e961136c565b5b828202905092915050565b7f6e6f207469656e657320666f6e646f7320737566696369656e74657300000000600082015250565b600061142b601c83611196565b9150611436826113f5565b602082019050919050565b6000602082019050818103600083015261145a8161141e565b9050919050565b600061146c82610eea565b91507fffffffffffffffffffffffffffffffffffffffffffffffffffffffffffffffff82141561149f5761149e61136c565b5b600182019050919050565b7f4e487b7100000000000000000000000000000000000000000000000000000000600052601260045260246000fd5b60006114e482610eea565b91506114ef83610eea565b9250826114ff576114fe6114aa565b5b828206905092915050565b7f4e487b7100000000000000000000000000000000000000000000000000000000600052603260045260246000fd5b7f4e487b7100000000000000000000000000000000000000000000000000000000600052602260045260246000fd5b6000600282049050600182168061158057607f821691505b6020821081141561159457611593611539565b5b50919050565b60006115a582610eea565b91506115b083610eea565b9250826115c0576115bf6114aa565b5b828204905092915050565b6000819050919050565b6115e66115e182610eea565b6115cb565b82525050565b600081549050919050565b600081905092915050565b60008190508160005260206000209050919050565b61162081611120565b82525050565b60006116328383611617565b60208301905092915050565b60008160001c9050919050565b600073ffffffffffffffffffffffffffffffffffffffff82169050919050565b600061167e6116798361163e565b61164b565b9050919050565b6000611691825461166b565b9050919050565b6000600182019050919050565b60006116b0826115ec565b6116ba81856115f7565b93506116c583611602565b8060005b838110156116fd576116da82611685565b6116e48882611626565b97506116ef83611698565b9250506001810190506116c9565b5085935050505092915050565b600061171682866115d5565b60208201915061172682856115d5565b60208201915061173682846116a5565b9150819050949350505050565b7f536166654d6174683a206d756c7469706c69636174696f6e206f766572666c6f60008201527f7700000000000000000000000000000000000000000000000000000000000000602082015250565b600061179f602183611196565b91506117aa82611743565b604082019050919050565b600060208201905081810360008301526117ce81611792565b905091905056fea26469706673582212209e88455bb415b0a515322cc1421c20d1ab38458e2fc4d39646cefaeda313b55e64736f6c63430008090033",
  "immutableReferences": {},
  "source": "// SPDX-License-Identifier: MIT\npragma solidity >0.4.4 <0.8.10;\npragma experimental ABIEncoderV2;\n\nimport \"./SafeMath.sol\";\n\ncontract Lottery {\n\n  using SafeMath for uint256;\n\n    address  public owner;\n    address  [] public players;\n    address [] public winners;\n    address  public contrato;\n    address public _winner;\n\n    uint256 public valor = 0.001 ether;\n    uint public precio ;\n\n    mapping(address => string) knowName;\n    mapping (address => uint) howMuchWin;\n\n    constructor() {\n        owner = msg.sender;\n        contrato = address(this);\n    }\n    \n    function valordeLaLoteria(uint _valor) public {\n        valor = _valor;\n    }\n\n    function getContract()public view returns(address){\n        return address(this);\n    }\n\n    function enter(uint _numTickets, string memory _name) public payable {\n    require(msg.value >= _numTickets*(valor), \"no tienes fondos suficientes\");\n\n    payable(msg.sender).transfer( _numTickets*(valor));\n    precio = _numTickets*(valor);\n    for(uint i = 0; i <_numTickets;i++){\n    players.push(msg.sender);\n    }\n    knowName[msg.sender] = _name;\n    }\n\n    \n    function random() private view returns (uint) {\n        return uint(keccak256(abi.encodePacked(block.difficulty, block.timestamp, players)));\n    }\n    \n    function pickWinner() public restricted {\n        uint256 index = random() % players.length;\n        _winner =  players[index];       \n        winners.push(players[index]);\n        players = new address [](0);\n         _howMuchWin();\n\n    }\n    \n\n    function getBalance() public view restricted returns(uint256) {\n        return address(this).balance;\n    }\n\n    function getAmount() public view restricted returns(uint256) {\n        uint _amount = address(this).balance;\n        uint _amountModulo = _amount /100;\n        uint _amountComision = _amountModulo.mul(70);\n        return _amountComision;\n    }\n\n    function getString(address _address) public view returns(string memory){\n        return knowName[_address];\n    }    \n\n    modifier restricted() {\n        require(msg.sender == owner);\n        _;\n    }\n\n    function _howMuchWin()  internal {\n        howMuchWin[_winner] = getBalance();\n    }\n\n    function getHowMuch(address _address) public view returns (uint){\n        return howMuchWin[_address];\n    }\n\n    function getPlayers() public view returns (address[] memory) {\n        return players;\n    }\n    function getWinners()public view returns (address[]memory){\n        return winners;\n    }\n\n    function withdraw() public payable restricted {\n        payable(owner).transfer(address(this).balance);\n}\n\n}\n   ",
  "sourcePath": "/Users/jorgeochipinti/Desktop/programacion/solidity/loteria/loteria/contracts/lottery.sol",
  "compiler": {
    "name": "solc",
    "version": "0.8.9+commit.e5eed63a.Emscripten.clang"
  },
  "schemaVersion": "3.4.3",
  "updatedAt": "2022-03-10T07:59:21.654Z",
  "networkType": "ethereum",
  "devdoc": {
    "kind": "dev",
    "methods": {},
    "version": 1
  },
  "userdoc": {
    "kind": "user",
    "methods": {},
    "version": 1
  }
}